{
  "_format": "hh-sol-artifact-1",
  "contractName": "Transaction",
  "sourceName": "contracts/Transaction.sol",
  "abi": [
    {
      "inputs": [
        {
          "internalType": "address payable",
          "name": "receiver",
          "type": "address"
        }
      ],
      "name": "transfer",
      "outputs": [],
      "stateMutability": "payable",
      "type": "function"
    }
  ],
  "bytecode": "0x608060405234801561001057600080fd5b5061026f806100206000396000f3fe60806040526004361061001e5760003560e01c80631a69523014610023575b600080fd5b61003d6004803603810190610038919061018f565b61003f565b005b806000806101000a81548173ffffffffffffffffffffffffffffffffffffffff021916908373ffffffffffffffffffffffffffffffffffffffff160217905550600034116100c2576040517f08c379a00000000000000000000000000000000000000000000000000000000081526004016100b990610219565b60405180910390fd5b60008054906101000a900473ffffffffffffffffffffffffffffffffffffffff1673ffffffffffffffffffffffffffffffffffffffff166108fc349081150290604051600060405180830381858888f19350505050158015610128573d6000803e3d6000fd5b5050565b600080fd5b600073ffffffffffffffffffffffffffffffffffffffff82169050919050565b600061015c82610131565b9050919050565b61016c81610151565b811461017757600080fd5b50565b60008135905061018981610163565b92915050565b6000602082840312156101a5576101a461012c565b5b60006101b38482850161017a565b91505092915050565b600082825260208201905092915050565b7f4e6f742061636365707465640000000000000000000000000000000000000000600082015250565b6000610203600c836101bc565b915061020e826101cd565b602082019050919050565b60006020820190508181036000830152610232816101f6565b905091905056fea2646970667358221220f19d3f216a611a8397f5e9eacf6553d600530d07369a2f33abdd5e6af31b3cb364736f6c63430008120033",
  "linkReferences": {},
  "deployedLinkReferences": {}
}